:100000000C9463000C948B000C948B000C94D5051D
:100010000C94D5050C94D5050C948B000C948B0096
:100020000C948B000C948B000C948B000C94140596
:100030000C948B000C948B000C948B000C948B0014
:100040000C94CA040C948B000C9498040C947204C5
:100050000C948B000C948B000C948B000C948B00F4
:100060000C948B000C948B000000000024002700EF
:100070002A0000000008000201000003040700003D
:1000800000000000000000000000230026002900FE
:1000900000000000250028002B00040404040404D0
:1000A0000404020202020202030303030303010227
:1000B00004081020408001020408102001020408F6
:1000C00010206B06C50911241FBECFEFD8E0DEBF9C
:1000D000CDBF11E0A0E0B1E0E0E2F5E102C00590A3
:1000E0000D92A835B107D9F722E0A8E5B1E001C02B
:1000F0001D92A339B207E1F710E0C2E6D0E004C0D8
:100100002197FE010E94780AC136D107C9F70E94E3
:1001100030070C94830A0C940000CF92DF92EF9288
:10012000FF920F931F93CF93DF936C017A018B01A2
:10013000C0E0D0E0CE15DF0581F0D8016D918D01D2
:10014000D601ED91FC910190F081E02DC601099559
:10015000892B11F02196EECF7E01C701DF91CF915F
:100160001F910F91FF90EF90DF90CF900895FC01C9
:10017000538D448D252F30E0842F90E0821B930B0C
:10018000541710F0CF96089501970895FC01918DB2
:10019000828D981761F0828DDF01A80FB11D5D96E9
:1001A0008C91928D9F5F9F73928F90E008958FEF57
:1001B0009FEF0895FC01918D828D981731F0828D0B
:1001C000E80FF11D858D90E008958FEF9FEF089562
:1001D000FC01918D228D892F90E0805C9F4F821BC6
:1001E00091098F73992708958BEC91E00E94E800A4
:1001F00021E0892B09F420E0822F0895FC01848DF1
:10020000DF01A80FB11DA35ABF4F2C91848D90E040
:1002100001968F739927848FA689B7892C93A0891B
:10022000B1898C91837080648C93938D848D9813A5
:1002300006C00288F389E02D80818F7D8083089538
:10024000EF92FF920F931F93CF93DF93EC0181E026
:10025000888F9B8D8C8D981305C0E889F9898081E2
:1002600085FD26C0F62E0B8D10E00F5F1F4F0F731C
:100270001127E02E8C8DE8120CC00FB607FCFACFC8
:10028000E889F989808185FFF5CFCE010E94FE00C3
:10029000F1CF8B8DFE01E80FF11DE35AFF4FF08285
:1002A0009FB7F8940B8FEA89FB89808180620AC02E
:1002B0009FB7F894EE89FF896083E889F989808186
:1002C0008370806480839FBF81E090E0DF91CF9155
:1002D0001F910F91FF90EF900895CF93DF93EC0162
:1002E000888D8823C9F0EA89FB89808185FD05C056
:1002F000A889B9898C9186FD0FC00FB607FCF5CF90
:10030000808185FFF2CFA889B9898C9185FFEDCFD7
:10031000CE010E94FE00E7CFDF91CF91089580E0EB
:1003200090E0892B29F00E94F40081110C940000C8
:10033000089590E0FC01EE58FF4F2491FC01E25536
:10034000FF4F3491FC01E656FF4FE491EE2309F490
:100350003CC0222339F1233091F038F42130A9F048
:10036000223001F584B58F7D12C0273091F02830FE
:10037000A1F02430B9F4809180008F7D03C080917A
:1003800080008F77809380000DC084B58F7784BD07
:1003900009C08091B0008F7703C08091B0008F7D3D
:1003A0008093B000F0E0EE0FFF1FE057FF4FA591E4
:1003B000B4919FB7F894611104C08C9130953823A3
:1003C00002C0EC913E2B3C939FBF0895CF93DF93E7
:1003D00090E0FC01E255FF4F2491FC01E656FF4FEF
:1003E0008491882361F190E0880F991FFC01E859FE
:1003F000FF4FC591D491FC01E057FF4FA591B491F7
:10040000611109C09FB7F894888120958223888361
:10041000EC912E230BC0623061F49FB7F894888171
:10042000322F309583238883EC912E2B2C939FBF02
:1004300006C08FB7F894E8812E2B28838FBFDF91F9
:10044000CF9108953FB7F8948091C3019091C40172
:10045000A091C501B091C60126B5A89B05C02F3F4C
:1004600019F00196A11DB11D3FBFBA2FA92F982FDA
:100470008827820F911DA11DB11DBC01CD0142E055
:10048000660F771F881F991F4A95D1F708958F929D
:100490009F92AF92BF92CF92DF92EF92FF920E9413
:1004A00022024B015C0184EFC82EDD24D394E12CA1
:1004B000F12C0E942202DC01CB0188199909AA09BA
:1004C000BB09883E9340A105B10598F321E0C21A0B
:1004D000D108E108F10888EE880E83E0981EA11C7F
:1004E000B11CC114D104E104F10419F7FF90EF909D
:1004F000DF90CF90BF90AF909F908F900895CF9254
:10050000DF92EF92FF92CF93DF93EC01603282E0B3
:1005100078070CF03DC077FD06C0653B71052CF0F7
:1005200064EB70E002C060E070E0898128E830E0B0
:100530006901C81AD10887FDD394CC0CDD1CCC0C02
:10054000DD1C0D2C000CEE08FF088A8128E532E046
:10055000281B310987FD3395220F331F220F331FCC
:10056000C901330FAA0BBB0B9C01AD012C193D092E
:100570004E095F09DB010E940B0A24EB30E040E0EA
:1005800050E00E94E109C20ED31EE41EF51EB60122
:1005900038813C3080F5298188E890E0821B910900
:1005A00027FD9395880F991F880F991F6817790762
:1005B00084F08A8148E552E0481B510987FD539534
:1005C000440F551F440F551FCB01461757070CF416
:1005D000CA010297880F991F4FB7F894232F30E074
:1005E000F901EE0FFF1F2E0F3F1FF901E656FE4FD8
:1005F000928381834FBFDF91CF91FF90EF90DF9087
:10060000CF9008951F93CF93DF93EC01162F88812D
:100610008C3008F04EC061E0812F0E94E601888195
:10062000E82FF0E09F01220F331FE20FF31FE65681
:10063000FE4F1F739081907C192B108319821A82B0
:100640006CE00E94440A9CE0899FB001112440E0C4
:1006500050E09B01240F351FF901EE0FFF1F2E0FF5
:100660003F1FF901E656FE4F908196FD16C04F5F81
:100670005F4F4C30510569F781110FC01092800017
:1006800082E0809381001092850010928400B19ADC
:1006900080916F00826080936F00E881F0E0CF016D
:1006A000880F991FE80FF91FE656FE4F808180647E
:1006B00080838881DF91CF911F9108952091C90196
:1006C0003091CA012817390771F49091C7018091C0
:1006D000C801981741F0E091C701F0E0E85AFE4FD9
:1006E000808190E008958FEF9FEF089508951F9304
:1006F000CF93DF93DC015C968D919C915D97009781
:1007000039F421E030E013963C932E9312973BC0CE
:100710005196ED91FC91529750962C915097322F13
:1007200030951FB75E964C915E97742F727041FDA5
:100730006095F8944081772311F0422B01C0432348
:100740004083EC012197F1F748E0508160FF02C03F
:10075000522B01C053235083EC012197F1F766958A
:10076000415099F78081772319F08323808302C059
:10077000282B20831FBF5C968D919C915D970197DC
:10078000F1F781E090E0DF91CF911F9108952091E2
:10079000C9013091CA012817390771F48091C80145
:1007A0002091C70190E0805C9F4F821B910960E41B
:1007B00070E00E94500A089580E090E00895209132
:1007C000C9013091CA0128173907B9F49091C701BE
:1007D0008091C801981789F0E091C701F0E0E85ACC
:1007E000FE4F80812091C70130E02F5F3F4F2F7374
:1007F00033272093C70190E008958FEF9FEF08956E
:10080000089580E090E008950E947E0A61157105C8
:1008100079F0FB0101900020E9F73197AF01461B09
:10082000570BDC01ED91FC910280F381E02D0994DE
:1008300080E090E008958F929F92AF92BF92EF92E6
:10084000FF920F931F93CF93DF93CDB7DEB7A1979E
:100850000FB6F894DEBF0FBECDBF7C019B0140E018
:1008600050E019A28E010F5D1F4F8AE0882E912C57
:10087000A12CB12CCA01B901A50194010E94130A4F
:10088000605DF80162938F01211531054105510525
:1008900089F7BF01C7010E940604A1960FB6F8941C
:1008A000DEBF0FBECDBFDF91CF911F910F91FF90A3
:1008B000EF90BF90AF909F908F9008950F931F93EC
:1008C000CF93DF93EC010E9406048C0164E271E097
:1008D000CE010E940604800F911FDF91CF911F91DE
:1008E0000F9108951F920F920FB60F9211242F931C
:1008F0003F934F935F936F937F938F939F93AF93A8
:10090000BF93EF93FF938BEC91E00E94FE00FF9169
:10091000EF91BF91AF919F918F917F916F915F9177
:100920004F913F912F910F900FBE0F901F901895F0
:100930001F920F920FB60F9211242F938F939F93B4
:10094000EF93FF93E091DB01F091DC018081E09176
:10095000E101F091E20182FD12C090818091E401F9
:100960008F5F8F732091E501821751F0E091E401D0
:10097000F0E0E553FE4F958F8093E40101C0808144
:10098000FF91EF919F918F912F910F900FBE0F903C
:100990001F9018951F920F920FB60F9211242F934C
:1009A0003F938F939F93AF93BF938091BF0190919B
:1009B000C001A091C101B091C2013091BE0123E0FC
:1009C000230F2D3720F40196A11DB11D05C026E887
:1009D000230F0296A11DB11D2093BE018093BF017C
:1009E0009093C001A093C101B093C2018091C30153
:1009F0009091C401A091C501B091C6010196A11DBD
:100A0000B11D8093C3019093C401A093C501B0931D
:100A1000C601BF91AF919F918F913F912F910F9000
:100A20000FBE0F901F9018951F920F920FB60F9246
:100A300011242F933F934F935F936F937F938F93E3
:100A40009F93AF93BF93EF93FF938091980187FF9C
:100A500005C010928500109284001BC0209198015F
:100A6000022E000C330B8091990190E02817390772
:100A700084F480919801082E000C990BFC01EE0F74
:100A8000FF1F8E0F9F1FFC01E656FE4F808186FDE3
:100A900015C0809198018F5F8093980120919801F3
:100AA000022E000C330B8091990190E02817390732
:100AB000C4F4809198018C3064F113C08091980146
:100AC000082E000C990BFC01EE0FFF1F8E0F9F1FCD
:100AD000FC01E656FE4F808160E08F730E94990111
:100AE000D8CF8091840090918500049680349C49F1
:100AF00018F480E49CE905C0809184009091850001
:100B0000049690938900809388008FEF80939801DA
:100B10003BC0209184003091850080919801082E7F
:100B2000000C990BFC01EE0FFF1F8E0F9F1FFC01A5
:100B3000E656FE4F81819281820F931F9093890028
:100B40008093880080919801082E000C990BFC017D
:100B5000EE0FFF1F8E0F9F1FFC01E656FE4F808198
:100B600086FF12C080919801082E000C990BFC01A1
:100B7000EE0FFF1F8E0F9F1FFC01E656FE4F808178
:100B800061E08F730E949901FF91EF91BF91AF9146
:100B90009F918F917F916F915F914F913F912F9195
:100BA0000F900FBE0F901F9018951F920F920FB6C7
:100BB0000F9211242F933F934F935F936F937F93E3
:100BC0008F939F93AF93BF93EF93FF93E091C901EE
:100BD000F091CA01309709F451C0968DA685B7856A
:100BE000858591FF04C09C91892329F447C09C917D
:100BF000892309F043C0A389B4899C918589809594
:100C000089238C93868997890197F1F7608D718D7F
:100C1000A685B785558538E020E0CB010197F1F72F
:100C2000822F90E095958795282F4C91452309F0C8
:100C30002068315091F7868D81FD20958091C80103
:100C400090E001968F7399273091C701381749F0CA
:100C5000A091C801B0E0A85ABE4F2C938093C80160
:100C600003C0868D8160868F828D938D0197F1F709
:100C7000A389B4899C918589892B8C93FF91EF91ED
:100C8000BF91AF919F918F917F916F915F914F91A4
:100C90003F912F910F900FBE0F901F901895FC0160
:100CA000909199019C30A0F481E0890F8093990183
:100CB0009083892F90E0FC01EE0FFF1F8E0F9F1F86
:100CC000FC01E656FE4F88EB9BE0928381830895FA
:100CD0008FEF80830895CF92DF92EF92FF92109270
:100CE000CE011092CD0198EEC92E93E0D92EE12CC1
:100CF000F12CC092CF01D092D001E092D101F092BC
:100D0000D20184E091E09093CC018093CB0185ECFB
:100D100090E09093D8018093D70184EC90E0909379
:100D2000DA018093D90180EC90E09093DC0180930C
:100D3000DB0181EC90E09093DE018093DD0182EC99
:100D400090E09093E0018093DF0186EC90E0909337
:100D5000E2018093E1011092E4011092E50110920A
:100D6000E6011092E70180E992E00E944F068DE8CB
:100D700092E00E944F068AE892E00E944F0687E8C0
:100D800092E00E944F0610926B0210926A02C0928B
:100D90006C02D0926D02E0926E02F0926F0286E1D8
:100DA00091E0909369028093680210927F02109202
:100DB0007E021092810210928002109283021092A1
:100DC00082021092850210928402609186026E7FE8
:100DD0006D7F609386026695617081E0682787E089
:100DE0000E94990161E087E00E94E601E5EBF0E0F6
:100DF000E491E0937802E1EAF0E0E491F0E0EE0FB4
:100E0000FF1FE057FF4F8591949190937A02809352
:100E1000790260E086E00E94E6018091860281FD11
:100E200004C061E086E00E94990186E0809374022C
:100E3000E4EBF0E0E491E0937502E0EAF0E0E491A5
:100E4000F0E0EE0FFF1FEA57FF4F859194919093CA
:100E5000770280937602FF90EF90DF90CF90089515
:100E6000789484B5826084BD84B5816084BD85B585
:100E7000826085BD85B5816085BD80916E00816091
:100E800080936E0010928100809181008260809337
:100E90008100809181008160809381008091800039
:100EA0008160809380008091B10084608093B10064
:100EB0008091B00081608093B00080917A0084605E
:100EC00080937A0080917A00826080937A0080918A
:100ED0007A00816080937A0080917A0080688093A4
:100EE0007A001092C1008BEC91E00E946D01E091BC
:100EF000DD01F091DE0180818F7E8083E091DD0154
:100F0000F091DE018081877F8083E091DD01F091A7
:100F1000DE0180818F778083E091DD01F091DE0139
:100F200080818F7D80838091E5018093E401E09151
:100F3000DB01F091DC0182E08083E091D701F09148
:100F4000D8011082E091D901F091DA018FEC808311
:100F50001092E301E091DF01F091E00186E08083EF
:100F6000E091DD01F091DE01808180618083E0917C
:100F7000DD01F091DE01808188608083E091DD01F8
:100F8000F091DE01808180688083E091DD01F09145
:100F9000DE0180818F7D808368E070E080E992E0EF
:100FA0000E94020369E070E08DE892E00E94020373
:100FB0006AE070E08AE892E00E9402036BE070E071
:100FC00087E892E00E94020310928302109282024C
:100FD000109281021092800210927F0210927E0283
:100FE0008DE991E090938502809384029091740240
:100FF000963108F058C02DEB30E030937F022093FB
:101000007E022BE931E030938102209380022CE2B2
:1010100031E030938302209382024091680098303F
:1010200058F031E09E3008F430E021E0822F01C01A
:10103000880F3A95EAF701C084E0842B809368001A
:10104000983038F09E3040F0963148F020E030E0A3
:1010500008C02DE630E005C02BE630E002C02CE6EB
:1010600030E030937C0220937B02983030F481E0B2
:1010700001C0880F9A95EAF70EC0292F30E09E3004
:1010800018F42850310902C02E50310981E001C006
:10109000880F2A95EAF780937D02809184029091CF
:1010A00085020197F1F78091820290918302892B4A
:1010B00049F1E091C901F091CA0122E0E836F20756
:1010C00009F1309739F0A389B4899C91858980957D
:1010D00089238C93809186028E7F80938602109262
:1010E000C8011092C70188E692E09093CA018093EC
:1010F000C901E0917B02F0917C02908180917D0298
:10110000892B808367E271E08BEC91E00E945E04A2
:1011100067E271E088E692E00E945E046AE570E0B2
:1011200080E992E00E947F020E94470264E670E03C
:101130008DE892E00E947F020E94470268E270E020
:101140008AE892E00E947F020E94470261E470E018
:1011500087E892E00E947F020E94470284E6F82E10
:101160009AE0E92E88E692E00E94C70304970CF407
:1011700081C088E692E00E94DF038C0100531109D0
:1011800088E692E00E94DF03EC0188E692E00E948C
:10119000DF036C0188E692E00E94DF039E0120538A
:1011A0003109F29EE001F39ED00D112420E3C21A12
:1011B000D108EC9C9001ED9C300D1124C20FD31F7F
:1011C000C097C80FD91F0E94470288E692E00E948C
:1011D000C703892B29F088E692E00E94DF03F5CF50
:1011E0006DE271E088E692E00E940604B80188E6AC
:1011F00092E00E941B0464E371E088E692E00E94A2
:101200000604BE0188E692E00E941B04013011052D
:1012100041F4BE0180E992E00E947F026AE371E03E
:1012200023C00230110541F4BE018DE892E00E9416
:101230007F0260E471E018C00330110541F4BE0183
:101240008AE892E00E947F0266E471E00DC00430FB
:10125000110541F4BE0187E892E00E947F026CE430
:1012600071E002C062E571E088E692E00E945E04EF
:101270000E9447028BEC91E00E94E80004970CF476
:1012800081C08BEC91E00E94C6008C0100531109D3
:101290008BEC91E00E94C600EC018BEC91E00E9487
:1012A000C6006C018BEC91E00E94C6009E012053A9
:1012B0003109F29EE001F39ED00D112420E3C21A01
:1012C000D108EC9C9001ED9C300D1124C20FD31F6E
:1012D000C097C80FD91F0E9447028BEC91E00E9473
:1012E000E800892B29F08BEC91E00E94C600F5CF35
:1012F0006DE271E08BEC91E00E940604B8018BEC8A
:1013000091E00E941B0464E371E08BEC91E00E9489
:101310000604BE018BEC91E00E941B040130110514
:1013200041F4BE0180E992E00E947F026AE371E02D
:1013300023C00230110541F4BE018DE892E00E9405
:101340007F0260E471E018C00330110541F4BE0172
:101350008AE892E00E947F0266E471E00DC00430EA
:10136000110541F4BE0187E892E00E947F026CE41F
:1013700071E002C062E571E08BEC91E00E945E04D6
:101380000E9447020E948F01EDCE86E191E090938A
:101390006902809368028091C9019091CA018856C0
:1013A000924071F4E0917B02F0917C0290818091F7
:1013B0007D028095892380831092CA011092C90111
:1013C0000895052E97FB1EF400940E94F80957FD1E
:1013D00007D00E94130A07FC03D04EF40C94F809BE
:1013E00050954095309521953F4F4F4F5F4F089551
:1013F00090958095709561957F4F8F4F9F4F089581
:101400000E94350AA59F900DB49F900DA49F800D5A
:10141000911D11240895B7FF0C94000A0E94000A40
:10142000821B930B0895A1E21A2EAA1BBB1BFD0180
:101430000DC0AA1FBB1FEE1FFF1FA217B307E407B3
:10144000F50720F0A21BB30BE40BF50B661F771F0B
:10145000881F991F1A9469F76095709580959095EB
:101460009B01AC01BD01CF010895A29FB001B39FC4
:10147000C001A39F700D811D1124911DB29F700D9D
:10148000811D1124911D0895991B79E004C0991FB5
:10149000961708F0961B881F7A95C9F780950895CE
:1014A00097FB072E16F4009407D077FD09D00E9411
:1014B000640A07FC05D03EF4909581959F4F0895EE
:1014C000709561957F4F0895AA1BBB1B51E107C022
:1014D000AA1FBB1FA617B70710F0A61BB70B881FC4
:1014E000991F5A95A9F780959095BC01CD01089553
:1014F000EE0FFF1F0590F491E02D099481E090E03C
:10150000F8940C94830A10E0C2E6D0E004C0FE0117
:101510000E94780A2196C336D107C9F7F894FFCF05
:101520000000000020018D00B7006D01E800C6003A
:10153000DA000000000077038D0001047603C70382
:10154000DF035E030D0A0072656164790053657202
:10155000766F3A0020506F733A00204F6E203100B2
:10156000204F6E203200204F6E203300204F6E201F
:081570003400204F6666000004
:00000001FF
