:100000000C9463000C948B000C948B000C94ED0505
:100010000C94ED050C94ED050C948B000C948B0066
:100020000C948B000C948B000C948B000C942C057E
:100030000C948B000C948B000C948B000C948B0014
:100040000C94E2040C948B000C94B0040C948A047D
:100050000C948B000C948B000C948B000C948B00F4
:100060000C948B000C948B000000000024002700EF
:100070002A0000000008000201000003040700003D
:1000800000000000000000000000250028002B00F8
:1000900000000000230026002900040404040404D6
:1000A0000404020202020202030303030303010227
:1000B00004081020408001020408102001020408F6
:1000C00010206706CA0811241FBECFEFD8E0DEBF9C
:1000D000CDBF11E0A0E0B1E0E6E0F3E102C00590A1
:1000E0000D92A832B107D9F722E0A8E2B1E001C031
:1000F0001D92A336B207E1F710E0C2E6D0E004C0DB
:100100002197FE010E946B09C136D107C9F70E94F1
:100110002C070C9476090C940000CF92DF92EF929A
:10012000FF920F931F93CF93DF936C017A018B01A2
:10013000C0E0D0E0CE15DF0589F0D8016D918D01CA
:10014000D601ED91FC910190F081E02DC601099559
:10015000892B11F47E0102C02196ECCFC701DF91FB
:10016000CF911F910F91FF90EF90DF90CF90089566
:10017000FC01538D448D252F30E0842F90E0821BAD
:10018000930B541710F0CF96089501970895FC0132
:10019000918D828D981761F0828DDF01A80FB11DBE
:1001A0005D968C91928D9F5F9F73928F90E00895E2
:1001B0008FEF9FEF0895FC01918D828D981731F09C
:1001C000828DE80FF11D858D90E008958FEF9FEFF0
:1001D0000895FC01918D228D892F90E0805C9F4FC6
:1001E000821B91098F73992708958BE991E00E94F2
:1001F000E90021E0892B09F420E0822F0895FC0119
:10020000848DDF01A80FB11DA35ABF4F2C91848D9F
:1002100090E001968F739927848FA689B7892C93D4
:10022000A089B1898C9180648C93938D848D98136F
:1002300006C00288F389E02D80818F7D8083089538
:10024000EF92FF920F931F93CF93DF93EC0181E026
:10025000888F9B8D8C8D981305C0E889F9898081E2
:1002600085FD24C0F62E0B8D10E00F5F1F4F0F731E
:100270001127E02E8C8DE8120CC00FB607FCFACFC8
:10028000E889F989808185FFF5CFCE010E94FF00C2
:10029000F1CF8B8DFE01E80FF11DE35AFF4FF08285
:1002A0000B8FEA89FB898081806207C0EE89FF8914
:1002B0006083E889F98980818064808381E090E0AF
:1002C000DF91CF911F910F91FF90EF900895CF9301
:1002D000DF93EC01888D8823C9F0EA89FB8980814E
:1002E00085FD05C0A889B9898C9186FD0FC00FB620
:1002F00007FCF5CF808185FFF2CFA889B9898C9161
:1003000085FFEDCFCE010E94FF00E7CFDF91CF91B7
:10031000089580E090E0892B29F00E94F50081117A
:100320000C940000089590E0FC01EE58FF4F3491CA
:10033000FC01E255FF4F2491FC01E656FF4FE4918A
:10034000EE2309F43BC0332339F1333091F038F414
:100350003130A9F0323001F584B58F7D12C03730CD
:1003600091F03830A1F03430B9F4809180008F7D65
:1003700003C0809180008F77809380000DC084B58A
:100380008F7784BD09C08091B0008F7703C08091C2
:10039000B0008F7D8093B000F0E0EE0FFF1FEA57B2
:1003A000FF4FA591B4918FB7F894EC91611103C000
:1003B00020952E2301C02E2B2C938FBF0895CF9311
:1003C000DF9390E0FC01E255FF4F2491FC01E656DB
:1003D000FF4F8491882361F190E0880F991FFC0101
:1003E000E859FF4FC591D491FC01EA57FF4FA59101
:1003F000B491611109C09FB7F89488812095822338
:100400008883EC912E230BC0623061F49FB7F8947F
:100410003881822F809583238883EC912E2B2C9317
:100420009FBF06C08FB7F894E8812E2B28838FBF1B
:10043000DF91CF9108953FB7F89480919301909107
:100440009401A0919501B091960126B5A89B05C095
:100450002F3F19F00196A11DB11D3FBFBA2FA92F43
:10046000982F8827820F911DA11DB11DBC01CD01C0
:1004700042E0660F771F881F991F4A95D1F70895AC
:100480008F929F92AF92BF92CF92DF92EF92FF92A4
:100490000E941B024B015C018FE0C82ED12CE12C85
:1004A000F12C0E941B02DC01CB0188199909AA09D1
:1004B000BB09883E9340A105B10558F021E0C21A5E
:1004C000D108E108F10888EE880E83E0981EA11C8F
:1004D000B11CC114D104E104F10419F7FF90EF90AD
:1004E000DF90CF90BF90AF909F908F900895CF9264
:1004F000DF92EF92FF92CF93DF93EC01603282E0C4
:1005000078070CF03DC077FD06C0653B71052CF007
:1005100064EB70E002C060E070E0898128E830E0C0
:100520006901C81AD10887FDD394CC0CDD1CCC0C12
:10053000DD1C0D2C000CEE08FF088A8128E532E056
:10054000281B310987FD3395220F331F220F331FDC
:10055000C901330FAA0BBB0B9C01AD012C193D093E
:100560004E095F09DB010E94FE0824EB30E040E009
:1005700050E00E94D408C20ED31EE41EF51EB60140
:1005800088818C3080F5998148E850E0491B5109F9
:1005900097FD5395440F551F440F551F641775075A
:1005A00084F09A8128E532E0291B310997FD3395C3
:1005B000220F331F220F331FAB01261737070CF40E
:1005C000A90142505109440F551F2FB7F89490E0EC
:1005D000FC01EE0FFF1F8E0F9F1FFC01E659FE4F1F
:1005E000528341832FBFDF91CF91FF90EF90DF9037
:1005F000CF9008951F93CF93DF93EC01162F88813E
:100600008C3008F04EC061E0812F0E94DF018881AC
:10061000E82FF0E09F01220F331FE20FF31FE6598E
:10062000FE4F1F739081907C192B108319821A82C0
:100630006CE00E9437099CE0899FB001112440E0E2
:1006400050E09A01260F371FF901EE0FFF1F2E0F02
:100650003F1FF901E659FE4F908196FD16C04F5F8E
:100660005F4F4C30510569F781110FC01092800027
:1006700082E0809381001092850010928400B19AEC
:1006800080916F00826080936F00E881F0E0CF017D
:10069000880F991FE80FF91FE659FE4F808180648B
:1006A00080838881DF91CF911F910895FC01909103
:1006B00069019C30A0F481E0890F809369019083E7
:1006C000892F90E0FC01EE0FFF1F8E0F9F1FFC0192
:1006D000E659FE4F88EB9BE09283818308958FEF6C
:1006E000808308952091990130919A012817390744
:1006F00071F49091970180919801981741F0E091E1
:100700009701F0E0E85DFE4F808190E008958FEF63
:100710009FEF089508951F93CF93DF93DC015C96BC
:100720002D913C915D972115310539F481E090E0E0
:1007300013969C938E9312973DC05196ED91FC9128
:10074000529750969C915097892F80951FB75E962F
:100750004C915E9741FB772770F941FD6095F894C5
:100760004081772311F0492B01C048234083E901E0
:100770002197F1F748E0508160FF02C0592B01C07A
:1007800058235083E9012197F1F76695415099F775
:10079000772321F090818923808303C08081982B67
:1007A00090831FBF5C968D919C915D970197F1F7A7
:1007B00021E030E0C901DF91CF911F910895209190
:1007C000990130919A012817390771F480919801A5
:1007D0002091970190E0805C9F4F821B910960E41B
:1007E00070E00E944309089580E090E00895209110
:1007F000990130919A0128173907B9F4909197011E
:1008000080919801981789F0E0919701F0E0E85DF8
:10081000FE4F80812091970130E02F5F3F4F2F7373
:1008200033272093970190E008958FEF9FEF08956D
:10083000E0919901F0919A01E817F90769F4A38909
:10084000B4899C918589809589238C9310929A0113
:100850001092990181E0089580E00895089580E064
:1008600090E00895CF92DF92EF92FF920F931F9343
:10087000CF93DF93CDB7DEB7A1970FB6F894DEBF65
:100880000FBECDBF9C0140E050E019A28E010F5D6C
:100890001F4F8AE0C82ED12CE12CF12CCA01B901DE
:1008A000A70196010E940609605DF80162938F011D
:1008B000211531054105510589F7309771F00190F7
:1008C0000020E9F73197AF01401B510BB8018BE9CC
:1008D00091E00E948D008C0102C000E010E042E037
:1008E00050E064E271E08BE991E00E948D00800F9E
:1008F000911FA1960FB6F894DEBF0FBECDBFDF915A
:10090000CF911F910F91FF90EF90DF90CF900895BE
:100910000E9471091F920F920FB60F9211242F930C
:100920003F934F935F936F937F938F939F93AF9377
:10093000BF93EF93FF938BE991E00E94FF00FF913B
:10094000EF91BF91AF919F918F917F916F915F9147
:100950004F913F912F910F900FBE0F901F901895C0
:100960001F920F920FB60F9211242F938F939F9384
:10097000EF93FF93E091AB01F091AC018081E091A6
:10098000B101F091B20182FD12C090818091B40159
:100990008F5F8F732091B501821751F0E091B40100
:1009A000F0E0E556FE4F958F8093B40101C0808141
:1009B000FF91EF919F918F912F910F900FBE0F900C
:1009C0001F9018951F920F920FB60F9211242F931C
:1009D0003F938F939F93AF93BF9380918F0190919B
:1009E0009001A0919101B091920130918E0123E08C
:1009F000230F2D3720F40196A11DB11D05C026E857
:100A0000230F0296A11DB11D20938E0180938F01AB
:100A100090939001A0939101B093920180919301E2
:100A200090919401A0919501B09196010196A11D1C
:100A3000B11D8093930190939401A0939501B0937D
:100A40009601BF91AF919F918F913F912F910F9000
:100A50000FBE0F901F9018951F920F920FB60F9216
:100A600011242F933F934F935F936F937F938F93B3
:100A70009F93AF93BF93EF93FF938091680187FF9C
:100A800005C010928500109284001BC0209168015F
:100A9000022E000C330B8091690190E02817390772
:100AA00084F480916801082E000C990BFC01EE0F74
:100AB000FF1F8E0F9F1FFC01E659FE4F808186FDB0
:100AC00015C0809168018F5F809368012091680153
:100AD000022E000C330B8091690190E02817390732
:100AE000C4F4809168018C3064F113C08091680176
:100AF000082E000C990BFC01EE0FFF1F8E0F9F1F9D
:100B0000FC01E659FE4F808160E08F730E949301E3
:100B1000D8CF8091840090918500049680349C49C0
:100B200018F480E49CE905C08091840090918500D0
:100B3000049690938900809388008FEF80936801DA
:100B40003BC0209184003091850080916801082E7F
:100B5000000C990BFC01EE0FFF1F8E0F9F1FFC0175
:100B6000E659FE4F81819281820F931F90938900F5
:100B70008093880080916801082E000C990BFC017D
:100B8000EE0FFF1F8E0F9F1FFC01E659FE4F808165
:100B900086FF12C080916801082E000C990BFC01A1
:100BA000EE0FFF1F8E0F9F1FFC01E659FE4F808145
:100BB00061E08F730E949301FF91EF91BF91AF911C
:100BC0009F918F917F916F915F914F913F912F9165
:100BD0000F900FBE0F901F9018951F920F920FB697
:100BE0000F9211242F933F934F935F936F937F93B3
:100BF0008F939F93AF93BF93EF93FF93E0919901EE
:100C0000F0919A01309709F451C0968DA685B78569
:100C1000858591FF04C09C91892329F447C09C914C
:100C2000892309F043C0A389B4899C918589809563
:100C300089238C93868997890197F1F7608D718D4F
:100C4000A685B785558538E020E0CB010197F1F7FF
:100C5000822F90E095958795282F4C91452309F098
:100C60002068315091F7868D81FD20958091980103
:100C700090E001968F73992730919701381749F0CA
:100C8000A0919801B0E0A85DBE4F2C93809398018D
:100C900003C0868D8160868F828D938D0197F1F7D9
:100CA000A389B4899C918589892B8C93FF91EF91BD
:100CB000BF91AF919F918F917F916F915F914F9174
:100CC0003F912F910F900FBE0F901F901895CF92CC
:100CD000DF92EF92FF9210929E0110929D0198EE8A
:100CE000C92E93E0D92EE12CF12CC0929F01D09215
:100CF000A001E092A101F092A20184E091E0909322
:100D00009C0180939B0185EC90E09093A8018093D7
:100D1000A70184EC90E09093AA018093A90180EC54
:100D200090E09093AC018093AB0181EC90E09093C4
:100D3000AE018093AD0182EC90E09093B00180937E
:100D4000AF0186EC90E09093B2018093B1011092D4
:100D5000B4011092B5011092B6011092B70180E66D
:100D600092E00E9456038DE592E00E9456038AE5C8
:100D700092E00E94560387E592E00E94560310928B
:100D80003B0210923A02C0923C02D0923D02E092A5
:100D90003E02F0923F0286E191E090933902809307
:100DA000380210924F0210924E021092510210928D
:100DB0005002109253021092520210925502109259
:100DC0005402609156026E7F6D7F60935602669565
:100DD000617081E0682787E00E94930161E087E00D
:100DE0000E94DF01E5EBF0E0E491E0934802E1EAE4
:100DF000F0E0E491F0E0EE0FFF1FEA57FF4F85911E
:100E0000949190934A028093490260E086E00E94A8
:100E1000DF018091560281FD04C061E086E00E94FE
:100E2000930186E080934402E4EBF0E0E491E093E8
:100E30004502E0EAF0E0E491F0E0EE0FFF1FE0573A
:100E4000FF4F859194919093470280934602FF90C3
:100E5000EF90DF90CF900895CF93DF9300D0CDB780
:100E6000DEB7789484B5826084BD84B5816084BD2A
:100E700085B5826085BD85B5816085BD80916E0038
:100E8000816080936E001092810080918100826069
:100E900080938100809181008160809381008091A6
:100EA00080008160809380008091B1008460809395
:100EB000B1008091B00081608093B00080917A0091
:100EC000846080937A0080917A00826080937A00B7
:100ED00080917A00816080937A0080917A008068A6
:100EE00080937A001092C10068E070E080E692E0A2
:100EF0000E94FA0269E070E08DE592E00E94FA0239
:100F00006AE070E08AE592E00E94FA026BE070E02D
:100F100087E592E00E94FA02E091AB01F091AC010A
:100F200082E08083E091A701F091A8011082E09116
:100F3000A901F091AA018FEC80831092B301E09196
:100F4000AF01F091B00186E08083E091AD01F091B6
:100F5000AE01808180618083E091AD01F091AE01AE
:100F6000808188608083E091AD01F091AE01808145
:100F700080688083E091AD01F091AE0180818F7D2A
:100F800080831092530210925202109251021092DA
:100F9000500210924F0210924E028DE991E0909310
:100FA00055028093540290914402963108F057C044
:100FB0002DEB30E030934F0220934E022BE931E0CD
:100FC00030935102209350022CE231E030935302CF
:100FD0002093520220916800983050F031E09E300A
:100FE00008F430E081E001C0880F3A95EAF701C0CB
:100FF00084E0822B80936800983038F09E3040F077
:10100000963148F020E030E008C02DE630E005C021
:101010002BE630E002C02CE630E030934C02209307
:101020004B02983030F481E001C0880F9A95EAF7BE
:101030000EC0292F30E09E3018F42850310902C02C
:101040002E50310981E001C0880F2A95EAF780937C
:101050004D0280915402909155020197F1F78091D1
:10106000520290915302892B21F180919901909124
:101070009A0122E088339207E1F0009711F00E9474
:101080001804809156028E7F809356021092980128
:101090001092970188E392E090939A0180939901CE
:1010A000E0914B02F0914C02908180914D02892B8E
:1010B000808388E392E00E94DF0302978CF188E34B
:1010C00092E00E94F7038C0188E392E00E94F7030C
:1010D000BC01C80169837A830E94320469817A81E4
:1010E000CB010E94320469817A810130110519F423
:1010F00080E692E011C00230110519F48DE592E00E
:101100000BC00330110519F48AE592E005C00430E4
:10111000110521F487E592E00E9477020E944002C7
:101120008BE991E00E94E90002978CF18BE991E054
:101130000E94C7008C018BE991E00E94C700BC01AE
:10114000C80169837A830E94320469817A81CB0164
:101150000E94320469817A810130110519F480E618
:1011600092E011C00230110519F48DE592E00BC038
:101170000330110519F48AE592E005C00430110529
:1011800021F487E592E00E9477020E9440020E94CB
:1011900089018FCF86E191E09093390280933802E4
:1011A00088E392E00C941804052E97FB1EF400943B
:1011B0000E94EB0857FD07D00E94060907FC03D0E8
:1011C0004EF40C94EB0850954095309521953F4F87
:1011D0004F4F5F4F089590958095709561957F4F23
:1011E0008F4F9F4F08950E942809A59F900DB49F8F
:1011F000900DA49F800D911D11240895B7FF0C94AC
:10120000F3080E94F308821B930B0895A1E21A2EA3
:10121000AA1BBB1BFD010DC0AA1FBB1FEE1FFF1F9A
:10122000A217B307E407F50720F0A21BB30BE40BEA
:10123000F50B661F771F881F991F1A9469F7609531
:101240007095809590959B01AC01BD01CF010895EB
:10125000A29FB001B39FC001A39F700D811D1124F7
:10126000911DB29F700D811D1124911D0895991B30
:1012700079E004C0991F961708F0961B881F7A958D
:10128000C9F78095089597FB072E16F4009407D0B0
:1012900077FD09D00E94570907FC05D03EF49095D0
:1012A00081959F4F0895709561957F4F0895AA1B72
:1012B000BB1B51E107C0AA1FBB1FA617B70710F041
:1012C000A61BB70B881F991F5A95A9F78095909573
:1012D000BC01CD010895EE0FFF1F0590F491E02DA4
:1012E000099481E090E0F8940C94760910E0C2E64D
:1012F000D0E004C0FE010E946B092196C336D107DD
:06130000C9F7F894FFCFCD
:101306000000000020018D00B8006701E900C70059
:10131600DB00000000008B038D002F048A03DF032F
:08132600F70372030D0A000039
:00000001FF
