:100000000C9463000C948B000C948B000C94D5051D
:100010000C94D5050C94D5050C948B000C948B0096
:100020000C948B000C948B000C948B000C94140596
:100030000C948B000C948B000C948B000C948B0014
:100040000C94CA040C948B000C9498040C947204C5
:100050000C948B000C948B000C948B000C948B00F4
:100060000C948B000C948B000000000024002700EF
:100070002A0000000008000201000003040700003D
:1000800000000000000000000000230026002900FE
:1000900000000000250028002B00040404040404D0
:1000A0000404020202020202030303030303010227
:1000B00004081020408001020408102001020408F6
:1000C00010206B06B70911241FBECFEFD8E0DEBFAA
:1000D000CDBF11E0A0E0B1E0E4E0F5E102C00590A1
:1000E0000D92AE35B107D9F722E0AEE5B1E001C01F
:1000F0001D92AC39B207E1F710E0C2E6D0E004C0CF
:100100002197FE010E946A0AC136D107C9F70E94F1
:1001100034070C94750A0C940000CF92DF92EF9292
:10012000FF920F931F93CF93DF936C017A018B01A2
:10013000C0E0D0E0CE15DF0581F0D8016D918D01D2
:10014000D601ED91FC910190F081E02DC601099559
:10015000892B11F02196EECF7E01C701DF91CF915F
:100160001F910F91FF90EF90DF90CF900895FC01C9
:10017000538D448D252F30E0842F90E0821B930B0C
:10018000541710F0CF96089501970895FC01918DB2
:10019000828D981761F0828DDF01A80FB11D5D96E9
:1001A0008C91928D9F5F9F73928F90E008958FEF57
:1001B0009FEF0895FC01918D828D981731F0828D0B
:1001C000E80FF11D858D90E008958FEF9FEF089562
:1001D000FC01918D228D892F90E0805C9F4F821BC6
:1001E00091098F739927089581ED91E00E94E800AD
:1001F00021E0892B09F420E0822F0895FC01848DF1
:10020000DF01A80FB11DA35ABF4F2C91848D90E040
:1002100001968F739927848FA689B7892C93A0891B
:10022000B1898C91837080648C93938D848D9813A5
:1002300006C00288F389E02D80818F7D8083089538
:10024000EF92FF920F931F93CF93DF93EC0181E026
:10025000888F9B8D8C8D981305C0E889F9898081E2
:1002600085FD26C0F62E0B8D10E00F5F1F4F0F731C
:100270001127E02E8C8DE8120CC00FB607FCFACFC8
:10028000E889F989808185FFF5CFCE010E94FE00C3
:10029000F1CF8B8DFE01E80FF11DE35AFF4FF08285
:1002A0009FB7F8940B8FEA89FB89808180620AC02E
:1002B0009FB7F894EE89FF896083E889F989808186
:1002C0008370806480839FBF81E090E0DF91CF9155
:1002D0001F910F91FF90EF900895CF93DF93EC0162
:1002E000888D8823C9F0EA89FB89808185FD05C056
:1002F000A889B9898C9186FD0FC00FB607FCF5CF90
:10030000808185FFF2CFA889B9898C9185FFEDCFD7
:10031000CE010E94FE00E7CFDF91CF91089580E0EB
:1003200090E0892B29F00E94F40081110C940000C8
:10033000089590E0FC01EE58FF4F2491FC01E25536
:10034000FF4F3491FC01E656FF4FE491EE2309F490
:100350003CC0222339F1233091F038F42130A9F048
:10036000223001F584B58F7D12C0273091F02830FE
:10037000A1F02430B9F4809180008F7D03C080917A
:1003800080008F77809380000DC084B58F7784BD07
:1003900009C08091B0008F7703C08091B0008F7D3D
:1003A0008093B000F0E0EE0FFF1FE057FF4FA591E4
:1003B000B4919FB7F894611104C08C9130953823A3
:1003C00002C0EC913E2B3C939FBF0895CF93DF93E7
:1003D00090E0FC01E255FF4F2491FC01E656FF4FEF
:1003E0008491882361F190E0880F991FFC01E859FE
:1003F000FF4FC591D491FC01E057FF4FA591B491F7
:10040000611109C09FB7F894888120958223888361
:10041000EC912E230BC0623061F49FB7F894888171
:10042000322F309583238883EC912E2B2C939FBF02
:1004300006C08FB7F894E8812E2B28838FBFDF91F9
:10044000CF9108953FB7F8948091C9019091CA0166
:10045000A091CB01B091CC0126B5A89B05C02F3F40
:1004600019F00196A11DB11D3FBFBA2FA92F982FDA
:100470008827820F911DA11DB11DBC01CD0142E055
:10048000660F771F881F991F4A95D1F708958F929D
:100490009F92AF92BF92CF92DF92EF92FF920E9413
:1004A00022024B015C0184EFC82EDD24D394E12CA1
:1004B000F12C0E942202DC01CB0188199909AA09BA
:1004C000BB09883E9340A105B10598F321E0C21A0B
:1004D000D108E108F10888EE880E83E0981EA11C7F
:1004E000B11CC114D104E104F10419F7FF90EF909D
:1004F000DF90CF90BF90AF909F908F900895CF9254
:10050000DF92EF92FF92CF93DF93EC01603282E0B3
:1005100078070CF03DC077FD06C0653B71052CF0F7
:1005200064EB70E002C060E070E0898128E830E0B0
:100530006901C81AD10887FDD394CC0CDD1CCC0C02
:10054000DD1C0D2C000CEE08FF088A8128E532E046
:10055000281B310987FD3395220F331F220F331FCC
:10056000C901330FAA0BBB0B9C01AD012C193D092E
:100570004E095F09DB010E94FD0924EB30E040E0F9
:1005800050E00E94D309C20ED31EE41EF51EB60130
:1005900038813C3080F5298188E890E0821B910900
:1005A00027FD9395880F991F880F991F6817790762
:1005B00084F08A8148E552E0481B510987FD539534
:1005C000440F551F440F551FCB01461757070CF416
:1005D000CA010297880F991F4FB7F894232F30E074
:1005E000F901EE0FFF1F2E0F3F1FF901E056FE4FDE
:1005F000928381834FBFDF91CF91FF90EF90DF9087
:10060000CF9008951F93CF93DF93EC01162F88812D
:100610008C3008F04EC061E0812F0E94E601888195
:10062000E82FF0E09F01220F331FE20FF31FE05687
:10063000FE4F1F739081907C192B108319821A82B0
:100640006CE00E94360A9CE0899FB001112440E0D2
:1006500050E09B01240F351FF901EE0FFF1F2E0FF5
:100660003F1FF901E056FE4F908196FD16C04F5F87
:100670005F4F4C30510569F781110FC01092800017
:1006800082E0809381001092850010928400B19ADC
:1006900080916F00826080936F00E881F0E0CF016D
:1006A000880F991FE80FF91FE056FE4F8081806484
:1006B00080838881DF91CF911F9108952091CF0190
:1006C0003091D0012817390771F49091CD018091B4
:1006D000CE01981741F0E091CD01F0E0E25AFE4FD3
:1006E000808190E008958FEF9FEF089508951F9304
:1006F000CF93DF93DC015C968D919C915D97009781
:1007000039F421E030E013963C932E9312973BC0CE
:100710005196ED91FC91529750962C915097322F13
:1007200030951FB75E964C915E97742F727041FDA5
:100730006095F8944081772311F0422B01C0432348
:100740004083EC012197F1F748E0508160FF02C03F
:10075000522B01C053235083EC012197F1F766958A
:10076000415099F78081772319F08323808302C059
:10077000282B20831FBF5C968D919C915D970197DC
:10078000F1F781E090E0DF91CF911F9108952091E2
:10079000CF013091D0012817390771F48091CE0133
:1007A0002091CD0190E0805C9F4F821B910960E415
:1007B00070E00E94420A089580E090E00895209140
:1007C000CF013091D00128173907B9F49091CD01AC
:1007D0008091CE01981789F0E091CD01F0E0E25AC6
:1007E000FE4F80812091CD0130E02F5F3F4F2F736E
:1007F00033272093CD0190E008958FEF9FEF089568
:10080000089580E090E008950E94700A61157105D6
:1008100079F0FB0101900020E9F73197AF01461B09
:10082000570BDC01ED91FC910280F381E02D0994DE
:1008300080E090E008958F929F92AF92BF92EF92E6
:10084000FF920F931F93CF93DF93CDB7DEB7A1979E
:100850000FB6F894DEBF0FBECDBF7C019B0140E018
:1008600050E019A28E010F5D1F4F8AE0882E912C57
:10087000A12CB12CCA01B901A50194010E94050A5D
:10088000605DF80162938F01211531054105510525
:1008900089F7BF01C7010E940604A1960FB6F8941C
:1008A000DEBF0FBECDBFDF91CF911F910F91FF90A3
:1008B000EF90BF90AF909F908F9008950F931F93EC
:1008C000CF93DF93EC010E9406048C0164E271E097
:1008D000CE010E940604800F911FDF91CF911F91DE
:1008E0000F9108951F920F920FB60F9211242F931C
:1008F0003F934F935F936F937F938F939F93AF93A8
:10090000BF93EF93FF9381ED91E00E94FE00FF9172
:10091000EF91BF91AF919F918F917F916F915F9177
:100920004F913F912F910F900FBE0F901F901895F0
:100930001F920F920FB60F9211242F938F939F93B4
:10094000EF93FF93E091E101F091E2018081E0916A
:10095000E701F091E80182FD12C090818091EA01E7
:100960008F5F8F732091EB01821751F0E091EA01C4
:10097000F0E0EF52FE4F958F8093EA0101C0808135
:10098000FF91EF919F918F912F910F900FBE0F903C
:100990001F9018951F920F920FB60F9211242F934C
:1009A0003F938F939F93AF93BF938091C501909195
:1009B000C601A091C701B091C8013091C40123E0E4
:1009C000230F2D3720F40196A11DB11D05C026E887
:1009D000230F0296A11DB11D2093C4018093C50170
:1009E0009093C601A093C701B093C8018091C9013B
:1009F0009091CA01A091CB01B091CC010196A11DAB
:100A0000B11D8093C9019093CA01A093CB01B0930B
:100A1000CC01BF91AF919F918F913F912F910F90FA
:100A20000FBE0F901F9018951F920F920FB60F9246
:100A300011242F933F934F935F936F937F938F93E3
:100A40009F93AF93BF93EF93FF9380919E0187FF96
:100A500005C010928500109284001BC020919E0159
:100A6000022E000C330B80919F0190E0281739076C
:100A700084F480919E01082E000C990BFC01EE0F6E
:100A8000FF1F8E0F9F1FFC01E056FE4F808186FDE9
:100A900015C080919E018F5F80939E0120919E01E1
:100AA000022E000C330B80919F0190E0281739072C
:100AB000C4F480919E018C3064F113C080919E013A
:100AC000082E000C990BFC01EE0FFF1F8E0F9F1FCD
:100AD000FC01E056FE4F808160E08F730E94990117
:100AE000D8CF8091840090918500049680349C49F1
:100AF00018F480E49CE905C0809184009091850001
:100B0000049690938900809388008FEF80939E01D4
:100B10003BC0209184003091850080919E01082E79
:100B2000000C990BFC01EE0FFF1F8E0F9F1FFC01A5
:100B3000E056FE4F81819281820F931F909389002E
:100B40008093880080919E01082E000C990BFC0177
:100B5000EE0FFF1F8E0F9F1FFC01E056FE4F80819E
:100B600086FF12C080919E01082E000C990BFC019B
:100B7000EE0FFF1F8E0F9F1FFC01E056FE4F80817E
:100B800061E08F730E949901FF91EF91BF91AF9146
:100B90009F918F917F916F915F914F913F912F9195
:100BA0000F900FBE0F901F9018951F920F920FB6C7
:100BB0000F9211242F933F934F935F936F937F93E3
:100BC0008F939F93AF93BF93EF93FF93E091CF01E8
:100BD000F091D001309709F451C0968DA685B78564
:100BE000858591FF04C09C91892329F447C09C917D
:100BF000892309F043C0A389B4899C918589809594
:100C000089238C93868997890197F1F7608D718D7F
:100C1000A685B785558538E020E0CB010197F1F72F
:100C2000822F90E095958795282F4C91452309F0C8
:100C30002068315091F7868D81FD20958091CE01FD
:100C400090E001968F7399273091CD01381749F0C4
:100C5000A091CE01B0E0A25ABE4F2C938093CE015A
:100C600003C0868D8160868F828D938D0197F1F709
:100C7000A389B4899C918589892B8C93FF91EF91ED
:100C8000BF91AF919F918F917F916F915F914F91A4
:100C90003F912F910F900FBE0F901F901895FC0160
:100CA00090919F019C30A0F481E0890F80939F0177
:100CB0009083892F90E0FC01EE0FFF1F8E0F9F1F86
:100CC000FC01E056FE4F88EB9BE092838183089500
:100CD0008FEF80830895CF92DF92EF92FF92109270
:100CE000D4011092D30198EEC92E93E0D92EE12CB5
:100CF000F12CC092D501D092D601E092D701F092AA
:100D0000D80184E091E09093D2018093D10185ECE9
:100D100090E09093DE018093DD0184EC90E090936D
:100D2000E0018093DF0180EC90E09093E2018093FA
:100D3000E10181EC90E09093E4018093E30182EC87
:100D400090E09093E6018093E50186EC90E090932B
:100D5000E8018093E7011092EA011092EB011092F2
:100D6000EC011092ED0189E992E00E944F0686E9BC
:100D700092E00E944F0683E992E00E944F0680E9CC
:100D800092E00E944F068DE892E00E944F0610927A
:100D9000710210927002C0927202D0927302E092BD
:100DA0007402F092750286E191E090936F02809355
:100DB0006E021092850210928402109287021092A5
:100DC0008602109289021092880210928B02109271
:100DD0008A0260918C026E7F6D7F60938C026695B3
:100DE000617081E0682787E00E94990161E087E0F7
:100DF0000E94E601E5EBF0E0E491E0937E02E1EA97
:100E0000F0E0E491F0E0EE0FFF1FE057FF4F859117
:100E100094919093800280937F0260E086E00E942C
:100E2000E60180918C0281FD04C061E086E00E94B1
:100E3000990186E080937A02E4EBF0E0E491E0939C
:100E40007B02E0EAF0E0E491F0E0EE0FFF1FEA57EA
:100E5000FF4F8591949190937D0280937C02FF9047
:100E6000EF90DF90CF900895789484B5826084BD30
:100E700084B5816084BD85B5826085BD85B581609E
:100E800085BD80916E00816080936E00109281001C
:100E900080918100826080938100809181008160D7
:100EA0008093810080918000816080938000809198
:100EB000B10084608093B1008091B0008160809324
:100EC000B00080917A00846080937A0080917A00EB
:100ED000826080937A0080917A00816080937A00AA
:100EE00080917A00806880937A001092C10081ED31
:100EF00091E00E946D01E091E301F091E4018081B5
:100F00008F7E8083E091E301F091E4018081877F0F
:100F10008083E091E301F091E40180818F77808309
:100F2000E091E301F091E40180818F7D80838091E5
:100F3000EB018093EA01E091E101F091E20182E0AE
:100F40008083E091DD01F091DE011082E091DF010C
:100F5000F091E0018FEC80831092E901E091E501CE
:100F6000F091E60186E08083E091E301F091E401F5
:100F7000808180618083E091E301F091E4018081D0
:100F800088608083E091E301F091E40180818068D2
:100F90008083E091E301F091E40180818F7D808383
:100FA00068E070E089E992E00E94020369E070E085
:100FB00086E992E00E9402036AE070E083E992E031
:100FC0000E9402036BE070E080E992E00E9402035D
:100FD0006CE070E08DE892E00E94020310928902BA
:100FE0001092880210928702109286021092850257
:100FF000109284028DE991E090938B0280938A0293
:1010000090917A02963108F058C02DEB30E0309381
:101010008502209384022BE931E0309387022093EC
:1010200086022CE231E030938902209388024091BD
:101030006800983058F031E09E3008F430E021E04C
:10104000822F01C0880F3A95EAF701C084E0842B13
:1010500080936800983038F09E3040F0963148F028
:1010600020E030E008C02DE630E005C02BE630E09F
:1010700002C02CE630E03093820220938102983047
:1010800030F481E001C0880F9A95EAF70EC0292F4D
:1010900030E09E3018F42850310902C02E5031093A
:1010A00081E001C0880F2A95EAF78093830280913E
:1010B0008A0290918B020197F1F7809188029091BA
:1010C0008902892B49F1E091CF01F091D00182E0B2
:1010D000EE36F80709F1309739F0A389B4899C916D
:1010E0008589809589238C9380918C028E7F809353
:1010F0008C021092CE011092CD018EE692E0909378
:10110000D0018093CF01E0918102F0918202908121
:1011100080918302892B808367E271E081ED91E009
:101120000E945E0467E271E08EE692E00E945E0437
:101130006AE570E089E992E00E947F020E9447021E
:1011400064E670E086E992E00E947F020E94470216
:1011500068E270E083E992E00E947F020E94470209
:1011600061E470E080E992E00E947F020E94470201
:101170006CE370E08DE892E00E947F020E944702DB
:1011800084E6A82E9AE0B92E8EE692E00E94C7036C
:101190000497C4F08EE692E00E94DF038C010053B6
:1011A00011098EE692E00E94DF03C0976C018EE683
:1011B00092E00E94DF03C0977C018EE692E00E94DD
:1011C000DF031EC081ED91E00E94E80004970CF45B
:1011D000C9C081ED91E00E94C6008C010053110945
:1011E00081ED91E00E94C600C0976C0181ED91E015
:1011F0000E94C600C0977C0181ED91E00E94C6006C
:10120000C097AC9CE001AD9CD00D1124BE9C900118
:10121000BF9C300D1124C20FD31FC80FD91F8EE6FB
:1012200092E00E94C703892B29F08EE692E00E948B
:10123000DF03F5CF81ED91E00E94E800892B29F0D2
:1012400081ED91E00E94C600F5CF6DE271E08EE67F
:1012500092E00E940604B8018EE692E00E941B0410
:1012600064E371E08EE692E00E940604BE018EE621
:1012700092E00E941B046DE271E081ED91E00E941A
:101280000604B80181ED91E00E941B0464E371E063
:1012900081ED91E00E940604BE0181ED91E00E9483
:1012A0001B040130110571F4BE0189E992E00E942E
:1012B0007F026AE371E08EE692E00E945E046AE3D8
:1012C00071E04CC00230110571F4BE0186E992E074
:1012D0000E947F0260E471E08EE692E00E945E046C
:1012E00060E471E03BC00330110571F4BE0183E995
:1012F00092E00E947F0266E471E08EE692E00E9436
:101300005E0466E471E02AC00430110571F4BE0188
:1013100080E992E00E947F026CE471E08EE692E048
:101320000E945E046CE471E019C00530110571F48F
:10133000BE018DE892E00E947F0262E571E08EE6D8
:1013400092E00E945E0462E571E008C068E571E029
:101350008EE692E00E945E0468E571E081ED91E026
:101360000E945E040E9447020E948F010DCF86E119
:1013700091E090936F0280936E028091CF019091E3
:10138000D0018E56924071F4E0918102F091820278
:101390009081809183028095892380831092D0016F
:1013A0001092CF010895052E97FB1EF400940E9421
:1013B000EA0957FD07D00E94050A07FC03D04EF446
:1013C0000C94EA0950954095309521953F4F4F4F29
:1013D0005F4F089590958095709561957F4F8F4FE1
:1013E0009F4F08950E94270AA59F900DB49F900DCE
:1013F000A49F800D911D11240895B7FF0C94F2094C
:101400000E94F209821B930B0895A1E21A2EAA1BD7
:10141000BB1BFD010DC0AA1FBB1FEE1FFF1FA217A4
:10142000B307E407F50720F0A21BB30BE40BF50BA1
:10143000661F771F881F991F1A9469F7609570952A
:10144000809590959B01AC01BD01CF010895A29FAD
:10145000B001B39FC001A39F700D811D1124911D88
:10146000B29F700D811D1124911D0895991B79E083
:1014700004C0991F961708F0961B881F7A95C9F724
:101480008095089597FB072E16F4009407D077FDFA
:1014900009D00E94560A07FC05D03EF4909581952C
:1014A0009F4F0895709561957F4F0895AA1BBB1BB0
:1014B00051E107C0AA1FBB1FA617B70710F0A61B54
:1014C000B70B881F991F5A95A9F780959095BC0175
:1014D000CD010895EE0FFF1F0590F491E02D0994C2
:1014E00081E090E0F8940C94750A10E0C2E6D0E038
:1014F00004C0FE010E946A0A2196C336D107C9F7CB
:04150000F894FFCF8D
:101504000000000020018D00B7006D01E800C60056
:10151400DA000000000077038D0001047603C7039E
:10152400DF035E030D0A007265616479005365721E
:10153400766F3A0020506F733A00204F6E203100CE
:10154400204F6E203200204F6E203300204F6E203B
:0E1554003400204F6E203500204F66660000E8
:00000001FF
